:020000041004E6
:10000000006000206F0405101D0105101F01051080
:10001000AA5555AA45554C420000000000000000BA
:100020000000000000000000000000002101051099
:100030000000000000000000431B04102301051015
:100040002B010510571C04100000000000000000E8
:100050002D0105100B260410350105104331041045
:100060000000000000000000000000000000000090
:1000700000000000B3360410033E04105343041084
:100080000000000037290410DB2904101730041089
:100090006F3004103F3104100B4F0410BB470410A5
:1000A0000000000000000000000000000000000050
:1000B0000000000000000000000000000000000040
:1000C000F0B5FE48FF4D0168FD4885B00C18A968E1
:1000D000C80171D5204680300090806B827AEE2373
:1000E0001A40827228464A030126C068002A40DB73
:1000F0004A0105D500200921C90648602E7034E068
:100100004A0012D5C178491E0906090EC17003D1F3
:100110000922D20651602E7041790A0625D549067A
:10012000490E4171816941611FE0E74A114208D0DF
:10013000224620329670490201D5032191708169CF
:1001400041610179C170214640318A79002A08D085
:100150000922D2069268A26400220223E2648B770D
:10016000A26541794906490E417100204621085592
:1001700039E029698A890121490752185288436B5D
:100180005218934209D19278142A06D1034640337B
:100190001A7DDF273A4032431A75806A408840183A
:1001A0007D210078095D0843C00606D4002009219E
:1001B0002E70C906486010E084E2606D00F06AFBB2
:1001C00001460920C0060269236DD21A1202120AE2
:1001D000914202D22E7000214160E868012201693B
:1001E000D20391430161AA68500213D5286981891D
:1001F000012040070918498808186861E9684B6BB5
:10020000834207D180780D2804D101200B690004B6
:1002100083430B61002A48DA0098806B41880120F3
:100220004007A84F0818F8610920C0064069C00DB2
:10023000C00707D0002009217E70C90648603E70C3
:10024000A248F3E0F86841210069490108420AD058
:1002500000F030FB012829D01C22F96948780242BD
:1002600001D0001F4870F8697D2201781155C943FB
:1002700089071DD0F8680069C00370D500F01AFB2B
:1002800001286DD01F20F9694978084267D0002005
:1002900009217E70C90648603E708C48B861F868D4
:1002A0000121026909048A430261C0E0FC22D4E70B
:1002B000857841781A2D76D2854A525DFF2A72D010
:1002C0008A4270D1022D15D0F9684A79D2065BD4E2
:1002D000062D16D00A69D30328D5002209237E7083
:1002E000DB065A603E70794ABA6101200A6900044F
:1002F00082435CE0F868406B0660F968232048712F
:1003000095E00122B86992031043B861714A086907
:10031000104015225202104308612046C030C17BB4
:10032000BA78914230D10821C17380E0002D18D0F5
:10033000012D2AD0032D2DD00A2D35D00B2D38D0EC
:10034000082D39D0092D3AD00C2D3BD00246624BF6
:100350002946012000F0B0FA002868D14BE05DE0AA
:100360005AE00A463D46214600F0A8FAE86981793C
:10037000C079000208435949400240185849896A27
:10038000814200D80846606551E00A46214600F0E7
:10039000B9FA4CE0BB6980252B434120000402439D
:1003A000BB610A6143E028E08920C00105E00A61E1
:1003B0003DE04C480240FAE710200243F7E70121F4
:1003C000090327E03B4697070425002F08DA9F69B9
:1003D0002F439F6102239A430823CF252B5502E028
:1003E000D30700D12A4332430A610522C01C2C31B5
:1003F00000F09FFA1BE0072D06D0F868082201697B
:1004000011430161C57112E0F969C9780E290ED155
:1004100001218906B9610AE0FF2034E72146FB6823
:100420003A69F86900F08EFAB9690843B861254B5A
:10043000D8681969056A0F8A01225207BF18019707
:100440007F88BA1800275A6102979B681127BF045A
:100450003B421ED15F011CD4476B974201D001275C
:1004600000E000270397904201D0012700E0002719
:10047000BC46002D0DD0039F002F0AD06746002FE9
:1004800007D0EF7CFF0904D02F68002F01D001278F
:1004900002975B0202D4029B002B78D043799F071E
:1004A00001D5002D20D05B085B00476B97425AD1E5
:1004B00043719378042B1CD02DE00000B000002085
:1004C00008090000680000200000408008001000BB
:1004D00032170410DFFBFEFF800000209AFDFFFFB3
:1004E000CC040020BFFFFEFF33431F463743477154
:1004F000DBE72346C033DF7B082F05D1DD4FBF7814
:10050000DF737D277F029F81DA4B01279B69FF06FE
:100510003B43D84FBB614379DB060CD5D54B09274C
:100520005E700023FF067B60D24BD34F1E709B6929
:100530003B43D04FBB619278152A32D107464037F2
:100540003A7DFD231A40BC463A75130729D5C94B9D
:1005500001279B697F063B43C64FBB61F7231A40C7
:1005600063461A751DE082421BD02B8AAF7C0022A5
:10057000DB192B826B69AB61AA742B8AEF88BB42B3
:1005800002D2EF7CFF0903D02D68202205E068E04D
:10059000DB0602D1AB691B68AB61B64B9F693A437E
:1005A0009A6142790027D20717D0B24A436B536150
:1005B0009A78052A3BD1026920231A430261002060
:1005C00008704871487088718870C871C870087266
:1005D000087148728020487229E0002D0AD000F08E
:1005E000FBF9002806D1A3483322C16852010969EA
:1005F000114209D09F490122C868486106800169FB
:10060000D2031143016112E09C4A297C1268052340
:100610005B02C906D218C90E126A0127891C891803
:100620004161019A51802946C06800F0E5F9914D79
:100630002121E8688901006908420AD000F03AF9EE
:10064000012809D01F2269694878024201D0001DA3
:100650004870002F02D004E0FF22F4E70199A88A35
:100660004880844DEA6810694106890F1BD08006D6
:100670002978C00F012902D0A96849030CD50028A8
:1006800005D02869C37D08210B43C3750BE0286999
:10069000C17DF723194005E00028F8D12869C17D04
:1006A00008231943C17521462B69E86900F0E6F972
:1006B0002878012808D000997148896B0322091D08
:1006C00000F064FA05B0F0BD6A480121C268006913
:1006D0005379C57A019520252D5C00278772204625
:1006E00020300290807803281CD197796148002F30
:1006F00018D19F06BF0F15D1604F3F682037FF7C90
:10070000002F0FD1176A002F0CD1CF273F5D8078C3
:10071000874207D09089411C6843019D89B24019E6
:1007200080B20190108F15894000484369181181EB
:1007300002998978002902D15169091A51610099F9
:10074000896B8D7A11273D438D722146494DC03109
:10075000CF7BAD78AF420AD18D892D1A8D810FD50F
:100760004449484F4E708D693D438D6108E055699D
:100770004049002D04DC4E70434F8D693D438D612F
:10078000990605D53B49414D4E708B692B438B61D2
:1007900011792746D1704037BE71E16C80B20818DC
:1007A000E0649079FB210840324D9071C00717D06A
:1007B000B88E1189401A012180B2C903884205D33D
:1007C0006E703349A8690843A86109E0002807D181
:1007D00001230021204600F0E1F9A9690843A8613E
:1007E000E9688879820723D53A8F0B89D21A521C7F
:1007F000012392B2DB039A4205D36E702449A869A3
:100800000843A86114E0002A12D1FD22104088712B
:1008100029690098213140680870020A4A70020C68
:100820008A70000EC87060342869E17E2030417102
:10083000019800F0FFF92969C872029800278770B3
:100840006878002802D0A87800F002FA0B4C5821F2
:1008500020680E544F21490140184079002802D0E9
:10086000012000F0C9FA00F09BFB206840300776B9
:1008700005B0F0BD6800002008000100B0000020B5
:10088000FA00300008804000080004000800020060
:10089000080008000649C20B09684004096A400CB8
:1008A000CB0958435143000A08182030800970478B
:1008B000B0000020002070470020704770B50C4643
:1008C0000546C178602001551646281D00F086FEB9
:1008D0004034A084A81D00F081FE20852846083001
:1008E00000F07CFEA08528460A3000F077FE2086C6
:1008F00028460C3000F072FEA086B0790121084332
:10090000B07170BD70B5054616460C46C01C00F0AF
:100910006AFE84210851E9797B2001552846083078
:1009200000F05CFE40342087B07902210843B071AA
:1009300070BD04E003780B70401C491C521E002A55
:10094000F8D17047F8B51D46144606460027FFF754
:10095000B1FF01280CD01F2071780840060036D066
:100960000020E86100F04AFE002803D0E86907E0B3
:10097000FF20F1E769893246012000F04FFEE8616F
:10098000002801D0102722E0E07D80214840E0755A
:100990001049286908421AD06079401E6071607958
:1009A000FF2814D1A079401EA071A079FF280ED194
:1009B000E079401EE071E079FF2808D1207A401EDE
:1009C0002072207AFF2802D1607A401E6072384679
:1009D000F8BD0000202800000648016805204002FC
:1009E0000818417BC07B814201D90120704700205B
:1009F00070470000B0000020F8B50C46CA88098A8C
:100A00004030521A8088102695B2A84205D2054679
:100A1000E07C4006400EE07403E02068002800D12E
:100A20000026002904D1207B800701D5022000E0A8
:100A30000120CF060643FF0EE81982B20E48A169D5
:100A40000368052040021818006A001D00F008FE27
:100A500060610948A5740168052040020818016A10
:100A6000B81C0E5404480168052040020818006AAA
:100A7000FF1CC555F8BD0000B0000020FFB515698A
:100A80001E46A8032E3689B01C461746002833DAC6
:100A9000102269463046FFF74CFF0924E40603980C
:100AA000A0610298E0610198206200986062354878
:100AB0000168052040020818416DA162006DE062E6
:100AC0000A988030016C2163C06B606300F0ECFD1C
:100AD000A06B0390E06B02902B4801680191406885
:100AE0000090102231466846FFF723FF01204004A2
:100AF00085433D610DB0F0BDE8053CD505A8014634
:100B0000009010223046FFF714FFFF20013085438C
:100B10004120800205433D610998082201A9C01CBB
:100B2000FFF707FF0998214604222A310B30FFF70F
:100B300000FF154805A9283800F0C8FD0924E4067F
:100B40000298A0620198E062786B082203A90D3038
:100B5000FFF7EFFE049820630398606300F0A4FDA4
:100B6000094905A8083900F0B1FD10223146009866
:100B7000FFF7DFFEBEE7A07A0006BBD40A9800F0BC
:100B8000AEFDB7E7B00000204000004803E0087069
:100B9000000A491C521E002AF9D17047FFB581B0E6
:100BA00000230093049B012B2BD04B8C204D1C0168
:100BB0000B8C9C46CB7E6B438D8BAE46CD8B966962
:100BC000A64205D19689664502D1168FAE4201D064
:100BD0004026009696790427760876003E43967163
:100BE00094615461644694811587049A012A17D050
:100BF0000B6170464A68400010184860009805B0C4
:100C0000F0BD034640331D461B8E094E1C01AB8DC3
:100C10009C4660231B5C7343AE8C2D8DB646CEE79D
:100C200083657146C26C49005118C164E6E7000053
:100C3000E2040000054925224143090C5143401AB2
:100C400080B2252800D32538C0B27047EB060000DB
:100C5000F1B56749674A086882B082180092654A10
:100C60000446703A8618AC22155C0346029AC034DA
:100C7000363395427ED9052149024018174658213E
:100C800040694F430025B91C4554029800F032FDDD
:100C900000280CD15648BF1D0168052040020818E5
:100CA0004069C05D002802D00098C030057272B65D
:100CB0004F48029D0768012039462031CA7DA8406F
:100CC0008243CA75317D81433175197808077AD41A
:100CD0004A070298520F82427CD030462030827EF2
:100CE0005507029A6D0F954276D181760F201870C4
:100CF000404AA0687063BD18A86D2169A96520618C
:100D0000686D6169696560612146284618315C300B
:100D100000F00AFD3748A37E5E3039180A780B7060
:100D2000A276A86C2168A9642060E86C6168E96417
:100D300060603048E37E603039180A780B702146D5
:100D40002846E2761C31643000F0EEFC214628464D
:100D50001E31683000F0E8FC2146284620316C3016
:100D600000F0E2FC214628462231703000F0DCFC25
:100D7000214600E03AE028462431743000F0D4FCEB
:100D8000214628462631783000F0CEFC19488035BF
:100D90007B303918204628300A7803780B700270AF
:100DA0001448E26A8430381801680260E162072161
:100DB000E06809050843A96B0322091DFFF7E6FE59
:100DC0000AE000E006E03A20805D41070298490F02
:100DD000814201D10F2018702036B07E4107029861
:100DE000490F814201D10F20B07662B6FEBD0000EE
:100DF000B000002008090000F0B5654D04466549C3
:100E0000286891B04018089000200E9072B600F04B
:100E10009DFC002801D1002C07D05D48002401680A
:100E20004F20400108184779ADE062B60E9811B026
:100E3000F0BDF8077ED05849A00140180D905448E5
:100E400005210068490240184169582060430D1887
:100E5000A978286A4907490F02296CD1A97949075D
:100E600069D4002867D0288F400009900002FFF75E
:100E700011FD039000201090454836210068095C60
:100E80000A0709D44907490FA14205D10121803041
:100E90001091466C806C05E00899CE6C1121C90157
:100EA0004018C06C0090FF205F30FFF7F3FC3A4918
:100EB0000C39497A0D9AC90041180098411A0398D3
:100EC000091A0B201056203212782B899646069369
:100ED00000220923DB061B699446CB1A1B02012260
:100EE0001B0AD205934241D2724652B296462B4A11
:100EF0005B1E934220D2099B9E421DD901230E9373
:100F0000039B6A69C91A9C44099BF61AD3186B6142
:100F10007346C01A069B40B25B1E9BB20693002824
:100F200001DA253040B20923DB061B69CB1A1B020C
:100F30001B0ADCE724E019E000996246891A0902DD
:100F4000109A090A002A05D0114A126880325664A4
:100F5000916407E0089AD6640D4A13681122D20101
:100F60009A18D1640D99C872069828810848012200
:100F700001684F20400108184179A2409143417116
:100F8000641CE4B27F08002F00D052E74DE7000058
:100F9000B000002008090000CC000020FFFF7F0007
:100FA000F0B5FE4FFE48396897B00D180846683016
:100FB000129005204002081840691190F8487030DE
:100FC0000E180920C006006908900020149008241B
:100FD000F448FFF75FFC0B900020139072B638685E
:100FE000F7224030C1791140C1711298012101717D
:100FF000129801684A07520F4271C9081298C90035
:10100000016062B6089800F0CDFB686B05903A204D
:10101000405D0E90082842D2012014900E9858216D
:101020004843119940180490DF48876ADF48407AA6
:10103000C00000F01DFD01460498008F4002081812
:10104000D84949424018874200D238467065B820D6
:1010500081590A7948798979000210438907890BF7
:1010600001430498FF314030028A408AC33110188E
:10107000401800F005FD07465F200001FFF70AFC5D
:10108000B84204D95F200001FFF704FC00E03846B5
:1010900005990918C548407AC00008181390706D6A
:1010A000FFF7F8FB059940180490002007460790C9
:1010B000287D002809D10E98082806D3BB490020B6
:1010C00008800921C906486044E168680990686C95
:1010D000019029680898401A00020412B348008859
:1010E0004007400F00F006FB002801D0002007E079
:1010F000002CFBDB204600F0BBFC0199884200DAA3
:1011000001900120800708240A9000200D90297D7D
:101110003AE00E9A904234D0A04A12682032927D72
:101120001207120F82422CD0EB6A420010930092F9
:101130009F5A07976B6A9A5A099B92017B43D3186F
:10114000019A9C46934212DACA0710D02A6B009B80
:10115000099FD25A521C93B21A467A43079F94446D
:10116000FA1892B213460792109F009ABB520A9A3D
:101170006346944505D2CA0703D0079A0A930446EA
:101180000D924908401CC0B20029C2D10A98FFF74D
:1011900081FB29684718A96A6000085A8001FFF797
:1011A00079FBC01907907D4800684030007E002818
:1011B0007F48006903D0391A0B98400002E0391AC1
:1011C0000B984008081A0002000A0121C905069080
:1011D000884209D3082C7DD0204600F055FC714987
:1011E0000A9840180190686401210698C905884250
:1011F00087D2082C6ED00D9800282DD0099948432D
:101200000190FFF747FB296840180002000A286098
:10121000696C0198081A68640A990198081A0021F3
:101220000A9013E0EA6A480008909446105A0D9A12
:10123000801A04E02B6B089A401C9A5A1018002858
:10124000F8DB089B6246491CD052C9B2534800687B
:10125000A030007B8842E5D80E9808286AD205980D
:10126000C01B01020120090AC005814223D30B984B
:10127000391A1398081A02020120120AC005824284
:1012800001D313980FE0049A891A0902090A8142CE
:1012900001D2049808E001204002FFF7FBFA0B9905
:1012A0004900791A081A04900599401A0002000AA8
:1012B00000F0DEFB70650B9904984018C01B01021A
:1012C0000120090AC005814248D20B994A000799BA
:1012D000521800E03EE00599511A0902090A8142BC
:1012E00028D20E985821484311994218582060433B
:1012F0004018C17BD37B994201D3102100E000212B
:10130000C90613D48179CA0702D07221895B03E030
:10131000890707D57621895B0289891A491E090444
:10132000090C07D04079000604D417E050799021C9
:10133000084213D1082C15D01A490A98401868643D
:10134000582011996043401880784007400F0128C9
:101350004CD007E01498002804D003D0059F0E9CC1
:1013600004980790079839020002000A0790090ABA
:10137000012000918002FFF78DFA059001204002C4
:10138000FFF788FA074600990798401A00020012F2
:10139000002816DD0599000A88420BE0B000002005
:1013A0009808000066020000CC040020C000002065
:1013B0000000004800D901460591B84200D83846DF
:1013C0000746082C7ED0814800884007400FA04285
:1013D0004FD05820119960434018089080784007FA
:1013E000400F052812D0022810D042E0304680304D
:1013F0000321826849028A42B4D0C0688842B1D0D1
:1014000000F082FB4005400DC719ABE70898A10129
:10141000006A04906D480818818B089880B2814258
:1014200027D00498002824D004990898FFF7E4FAFC
:10143000674904980A68007C05214902C0065118D2
:10144000C00E096A801C4018049008982121006988
:10145000890108420DD0FFF72DFA01283BD01F204B
:1014600004994978084204D0049840780499001DF2
:1014700048705748554900682030847448202043FC
:101480000880334680335A6B907AC106C90E6001DA
:1014900001439172996B8A7AD206D20E02438A7204
:1014A0000098306500F052F9012816D048480068CD
:1014B0002030017D4548407A081A316DC000081877
:1014C000000200E039E00121000A49064118092024
:1014D000C00641600EE0FF20C2E70121306D090621
:1014E00041180920C0064160394800682030017D5C
:1014F00036484172082C24D25820444311982418AD
:1015000072B61298A17800684907C008C000490F58
:101510000843304908400099C900084312990860FF
:1015200062B6A0784007400F03280FD0FFF7C2F93A
:1015300001280FD00798C01B19E000200921C90617
:10154000486022490020088017B0F0BD059907982F
:10155000401A0CE04034208A618A4018FF30C330C2
:1015600000F08EFA874200D938460799081A00021F
:10157000000AE863A98BA86989014018FFF78AF976
:101580002968012644181448FFF784F9201A00023C
:10159000000A28640E4C2E8420684030407E0028CB
:1015A00006D000F0CFFA20684030417EB14341764A
:1015B00020684030407E0028C6D000F0E9FA20685C
:1015C0004030417EFD2211404176BDE7C000002041
:1015D000B0000020070000F83502000001784078D4
:1015E0000002084370470178427813028278C0787D
:1015F0001204000610431843084370470648016868
:10160000052040020818017B807B814201D901201E
:101610007047002070470000B0000020F8B50D466C
:101620000E49052309685B02C9180E691F21521E65
:101630000A431D3297B20024394600F0CDFA002843
:101640000AD13946B06800F0EFFA04460834006861
:10165000A0600020E074A5802046F8BDB000002006
:1016600070B50C461F21521E0A430546521C00202D
:1016700011044E0D17D0214608316A1A2846002A57
:1016800001DD082A03DB202200F0E6FA04E008224C
:1016900008C9521E08C0FBD120352046761E24689A
:1016A0003604360CE7D170BD08B564206946087071
:1016B0000921C9066A461078401E10704869C004A6
:1016C00002D410780028F5D1107808BDCA680260ED
:1016D0008A6842604A6882600968C160704710B5D4
:1016E00004468034606C002803D000F0C5FA002066
:1016F000606410BD0A490B4A09688A182032927E3C
:1017000036311207120F824206D009780A0705D433
:101710004907490F814201D10120704700207047DD
:10172000B00000209808000002880B8803800A801F
:1017300070470C0802170D01010209090101060298
:1017400009FFFFFFFFFF0909FFFFFFFF30B4134848
:1017500009220368092000021818D206806D116959
:101760000F4C411A09022588090A2D0702D430BC02
:1017700001207047647A9B6AE400E3188B4209D227
:101780000123DB05994205D259000843506030BC63
:101790000120704730BC002070470000B0000020DE
:1017A000C0000020F1B5AF4AAF49106890B04118B1
:1017B0000491AD49044670314518C03401463631B4
:1017C0000D9100210291A949497AC9000C91816AC1
:1017D0000B91049920310E91897E079108297DD2C1
:1017E000052149024018416917460798582250437D
:1017F00008180890079881019C480C3008180A9036
:10180000C07A2E4640360990B08B00F06FFA3968E6
:101810004031098E401880B20390E96C039800F0C3
:1018200073FAE96C09020F1AB07F00F072FA3818E7
:10183000FFF730F8A96C41180C98081A0002000A4A
:1018400001901099411A0B98081A00020121000A10
:10185000C90588427ED20499019848630998FFF728
:10186000E9F90A99C8720D980078C143090706D0B2
:1018700041070798490F4007400F81422BD10E982E
:101880000821807E08430D990870A86C2060E86CE0
:1018900060600198A0600298E060A86D2061686DAA
:1018A0006061B08B2083B07FA076284660300178DD
:1018B000E176B18CA183318DE183B18D2184318EAC
:1018C0006184B18EA184318FE184C17E28200155CD
:1018D00084204059E0620D98007800E07CE0079990
:1018E00042074907520F490F8A4261D0F721084049
:1018F0000D995C4F08704007400F0790052039682C
:10190000400208184169079858225043081804906B
:101910000798810155480C3008180A90C07A099040
:10192000208B00F0E3F939684031098E401880B20D
:1019300003906168039800F0E7F9616809020F1AE3
:10194000A07E00F0E6F93818FEF7A4FF21684118E0
:101950000C9800E042E0081A070210983F0A391A72
:101960000B98081A00020121000AC905884257D2C3
:10197000A7600998FFF75EF90A99C872019808995B
:10198000C01B00024979000A9022114210D10121A6
:10199000C90588420AD30498C17B0898C07B401CC3
:1019A000814203D804984079C00601D500F0B8F907
:1019B000E96C039800F052FA0446B07F00F056FA42
:1019C000A96D201840180721090508438035A96B27
:1019D0000322091DFFF7DAF811B0F0BD0898008F57
:1019E00041000A98203002780998101880B20990B6
:1019F0000898089A0089401C108108984069421A8A
:101A0000089842610898C07BFF2802D2089A401CBF
:101A1000D073E86C4018E864079800F02FFAFCE6F1
:101A200004980A99008F400020310A7809995118CA
:101A300089B209910499049A0989491C1181049970
:101A400049690A1A04994A610499C97BFF2902D29B
:101A5000049A491CD173616808186060079800F007
:101A60000DFA66E7B000002098080000C0000020D2
:101A700008B500216A461180694600F061FA08BD88
:101A80004101401880097047F8B501461B480522FE
:101A9000006852028218536958224A439E18184A15
:101AA00000248518174A88018718B0784007400F2E
:101AB000052802D0012805D010E0084600F058FAA9
:101AC00004460BE02A468032108A002802D0401ECD
:101AD000108203E001240846FFF7BAF8F07BFF28E4
:101AE00001D2401CF073002C06D023463246294612
:101AF0000020009700F03EFAF8BD0000B000002082
:101B000008090000CC00002000210B20000702681B
:101B100052070DD5026804239A4302600268082325
:101B20001A43026004E0491C052901DD00207047CA
:101B300042689207F7D54168C907FCD0806880B237
:101B400070477047FEB50F480F49006806224418D9
:101B50000E494118684600F00DFDA66BE56B636BFE
:101B6000246C00206A46811C175C5F54175C775414
:101B7000175C6F54175C401C67540628F3DB002089
:101B8000FEBD0000B000002008090000DE060000D5
:101B90007CB50E4C0E492068062245180D494118A7
:101BA000684600F0E7FC296A06226846891CFEF7B1
:101BB000C0FE0521206849024018416B0622684694
:101BC000891CFEF7B6FE00207CBD0000B00000209E
:101BD000E8090000DE06000070B5124A052312680D
:101BE0005B02D2180123126983435B00491E412422
:101BF0009B184909491CC9B272B615798D420ED39A
:101C00001E785B78AD19EDB25B18AB4207D8400087
:101C1000135C00245B1813541079401A107162B6DB
:101C2000204670BDB0000020491EC904090E72B6DE
:101C300002788A420CD9511AC9B24A1ED3B2037033
:101C4000426888001058990052580021116000E045
:101C5000002062B670477047814202D25318984202
:101C600003D300B500F0B4FC00BD521E03D38B5C5F
:101C70008354521EFBD2704718B40168184ACB68CF
:101C800013608C68012354604C6894600968D160CB
:101C90004168144ACC6814608C6854604C68946045
:101CA0000968D16064216A4611700922D2066C4627
:101CB0002178491E21705169C90402D42178002974
:101CC000F5D122782270084A8168D4680C60946843
:101CD0004C6054688C601268CA60037318BC70470B
:101CE0001800004828000048380000481FB5054C7F
:101CF00040071ECC03946C460EC4000F6946085A78
:101D000004B010BDFC03051089084143880A401C3B
:101D10007047032802D06320C04370476620704795
:101D2000F8B54C4D4C492868441826464036B08BCF
:101D3000FFF7DCFF29684031098E401880B2E16C62
:101D400000F08CF80746B07F00F090F8A16D3818CD
:101D5000411807200005014300913F4A2968363A9F
:101D60008818363100F041FC232128688901421887
:101D7000917C4B07014620318E7D5B0F37093F0177
:101D80003B4393747207520F8A75334AA8313C3A29
:101D9000801800F02FFC2868A16CC0300268A26493
:101DA00001602868E16CC4300268E2640160286860
:101DB0000099CC221150D030A16D0268A26501605B
:101DC0002868616DD4300268626501602968204628
:101DD0005C30D83100F013FC296820465E30DA31DF
:101DE00000F003FC296820466030DB3100F0FDFB89
:101DF000296820466430DC3100F001FC2968204667
:101E00006830DE3100F0FBFB296820466C30E031A1
:101E100000F0F5FB296820467030E23100F0EFFB5E
:101E2000296820467430E43100F0E9FB2968204637
:101E30007830E63100F0E3FB296820467B30E8315A
:101E400000F0D3FB296820468430EC3100F0D2FB4F
:101E5000F8BD0000B0000020080900004143080A56
:101E6000292109014843C00A401C7047012801D0BC
:101E700001487047002070477A030000FEB5034612
:101E80002C48232702680520400210184169582079
:101E900058430C18284811461018284EBF019D01C0
:101EA000D219AE19927CC03100259A420CD102465B
:101EB00040321746928E3F8F009784273F58012368
:101EC00001977B273F5C07E08A8CCF8C0097CF6A15
:101ED0000023019728277F5C0297A779FF0708D086
:101EE0002789D21B1204120C03D12246FEF756FE9C
:101EF0000546A079810710D522890099891A491CC5
:101F00000904090C09D1FD21084001ABA07131463B
:101F1000052221311846FEF70CFD002D09D0054899
:101F20000096016804482B4609182246002000F05C
:101F300021F8FEBDB000002008090000CC00002000
:101F400010B50A4A830B12688004526A800C140A86
:101F500060435A438009101800228A5E821A104694
:101F60004030C009C3019A1A0A8010BDB000002099
:101F700000207047FFB506468DB050890690FF4897
:101F80000521006849020B90401840690A90517978
:101F90001D461446480601D4E80757D00020079094
:101FA000208F0090A089A3698446A0784007400F45
:101FB00005282DD003282BD001200990BF200140F7
:101FC00061710E99EF07084640301031002F0AD09A
:101FD00000223C2107910E9906920092828394463A
:101FE0001346828008311B270B9ABF01D219177C38
:101FF000BF060FD5977CBF070CD580886246029339
:1020000001920390069B079A099800F0FDFA1DE0E3
:102010000020D2E71A030079130C009A6746039751
:10202000049302920590486801910002000E00900E
:102030000B98A0300079C00701D0002000E01020EC
:102040008030099B069A079900F0E0FA0E9F280756
:10205000C037002872DA2069E90301D5162117E09C
:10206000A90301D5132113E0290301D528210FE08D
:10207000E90201D53D210BE0690201D5222107E0EB
:10208000690329D56179090601D4082100E03E21C0
:102090000191B97B582251430A9A8918A14201D172
:1020A0000821B973F97B582251430A9A8918A14231
:1020B00001D10821F97305218902084222D02804A0
:1020C00020D5208A4004AD4800680ED5A0300079A4
:1020D000C00703D0002002E01F21D9E71020803084
:1020E000069A019900F0D6FA0CE0A0300079C007FA
:1020F00001D0002000E0102000238030069A0199D2
:1021000000F0F4FA206A002801D000F01DFB002046
:10211000206260629948A4210068095CC90701D067
:10212000002500E010250199069F022380350591C6
:10213000E90604D50222BF210D4007E01EE01B2165
:1021400089014118497AC90614D500222907890E48
:1021500009181120C0010818C06F294600F016FBAD
:10216000010007D000220A71CF80059A0A72284622
:1021700000F06AFB0020054620618EE1680620D54C
:10218000A0784007400F052801D1A16961610021B5
:1021900005280BD0208BA2890004000D019000922D
:1021A000238F8020069A00F063FB76E1606B438901
:1021B000028901930092C3888020069A00F058FBA0
:1021C0006BE0680724D5802000906C481B210068D4
:1021D00089014118897A0223069F0907CDD511216B
:1021E000C90140180C22C06F009900F0CFFA01001D
:1021F000C3D08F80F2788A71327973791B021343CE
:102200000B81B379F27912021A434A81009842E1B4
:102210002805800F06D00E98694631C1684600F047
:102220005DFB3AE1564805423DD0E80401D5002067
:1022300000E01A20079006980490F01C802102907C
:1022400000914E481B210068890141180A7C032334
:1022500092061AD5497C090717D51121C9014018E2
:102260000E22C06F009900F091FA059000280CD062
:10227000079901710499C18008220830029900F081
:1022800079F90599009800F0DFFAA0784007400F2F
:10229000052802D0022803D0FFE00820B873FCE034
:1022A0000820F873F9E0680424D5208A40043348F4
:1022B00000680CD5A0300079C00701D0002000E0F4
:1022C000102000218030069A00F0E4F90CE0A030E4
:1022D0000079C00701D0002000E010200123002178
:1022E0008030069A00F002FAA0784007400F0528D7
:1022F000D3D0D2E028021ED5208A00051AD51F4867
:10230000F1780068A0300079C00701D0002000E01B
:10231000102000238030069A00F0E8F9A0784007EA
:10232000400F052801D10820B87343212069890294
:1023300088432061B1E00E992A068031114800914E
:10234000002A2CDA31460D31019102A907910B497F
:10235000169F096808220918F01C2637FEF7E9FACB
:10236000F17A307B0822000208430099C88307995C
:102370000198FEF7DEFA0422394605E0B00000209D
:1023800000100004480A000001980830FEF7D1FA56
:1023900000980299C1630098039901647DE02901C6
:1023A0003ED57249A4220968525CD20701D00027A9
:1023B00000E0102708180390069A00980292C08B3C
:1023C000032380370590F80603D50622BF20074077
:1023D00009E01B2080010818027C92065DD5407C34
:1023E000C0065AD504223807800E41181120C001BA
:1023F0000818C06F394600F0C9F9049000284CD085
:10240000001D00900299018000980822801C039909
:1024100000F0B0F8009805994181384604993AE0F7
:10242000A80209D50820B873514800884007400F1A
:10243000401C00F054FA30E0A8012ED58020019015
:102440002046403041880991018A0891C188049151
:10245000408A079045481B210068890141180A7C81
:10246000069F0323920618D5497C490615D51121EC
:10247000C90140180622C06F019900F087F90100D8
:102480000BD08F80099ACA80089A0A81049A4A81DF
:10249000079A8A81019800F0D7F9A8060AD5206A20
:1024A0000168216200210160226A002A00D1616274
:1024B00000F04AF9E8061AD5FEF7FCF9012853D0D6
:1024C0001F277078B11C0740E0693A46806800F029
:1024D00007FAE069C780E069002707603178E069A2
:1024E0008907890F0173E06900F026FAE761E801C6
:1024F00038D51698C189012040070918498808185D
:1025000001784906CD0F07A900F034FAA120019007
:10251000A67B0798099008980A901448372100680C
:1025200049014118097C0223C9071BD01121C901A7
:10253000001D40180F22C06F019900F027F9040018
:1025400010D02671271D6571042209A9A01D00F075
:1025500011F804220AA9B81D00F00CF821460198D0
:1025600000F072F911B0F0BDFF27AAE7B00000201B
:10257000C000002010B5040000F02AF8200010BDB3
:1025800010B50400080011000200200000F0FCF962
:10259000200010BD80B500F021FA02BD70B4103AE1
:1025A00003D378C9103A78C0FBD2530701D318C9B6
:1025B00018C001D508C908C0D20704D30B8803800E
:1025C000891C801C002A01D50B78037070BC7047F1
:1025D0008B0701D18307E1D0124205D00B78491C4B
:1025E0000370401C521EF9D1704702780B780370BB
:1025F0000A70704702680B6803600A6070470288BF
:102600000B8803800A80704770477047FFB51F46EC
:1026100005230646C1061E4881B0006803D5052281
:10262000BF210E4009E01B21890141180A7C920656
:1026300029D5497CC90726D003223107890E0818FD
:102640001121C9014018C06F314600F09FF8040005
:102650001CD0029820710398E08027720A9860725B
:102660002046251D06220A300B99FFF783FF0C98A0
:10267000A8810D98E8810E9828820F98A8742146A9
:10268000304600F0E1F8002005B0F0BD0720FBE780
:10269000B000002070B50E4601230446C106124862
:1026A0001546006803D50422BF210C4008E01B2119
:1026B00089014118897B090601D4002070BD0222DE
:1026C0002107890E08181121C9014018C06F214641
:1026D00000F05CF8010005D00E71CD80204600F0BE
:1026E000B3F8EAE7072070BDB0000020F8B51D463A
:1026F0000F4602230446C10612481646006803D559
:102700000322BF210C4008E01B2189014118497AAE
:10271000090601D40020F8BD01222107890E0818FE
:102720001121C9014018C06F214600F02FF80100A7
:1027300006D00F71CE800D72204600F085F8E9E7D3
:102740000720F8BDB000002070B5C17C0E4D4906D1
:10275000490EC174044611212868C9014018902609
:1027600001230022C06F314600F010F8010003D0B1
:1027700030464C6000F068F80520296840020918CE
:10278000487B401C487370BDB0000020FFB5044674
:1027900000262C4F83B09C460D46080616D572B60F
:1027A00001AB6A466146204600F027F900280BD0AD
:1027B0006846818800988278920892008270018031
:1027C0006180012662B615E062B621E001AB6A467F
:1027D0006146204600F011F9002819D0680609D496
:1027E0006846818800988278920892008270018001
:1027F000618001260098AA00817840238907890F0B
:102800001A40114381700599C170002E0ED115E058
:102810000020009072B6A8060FD411203968C001BC
:102820000818816E08221143816662B672B6386854
:10283000F7224030C1791140C17162B6009807B0EB
:10284000F0BD0000B00000200A46400608D5D07850
:102850003A280AD2111D054B80001B581046184714
:10286000907880088000801C88707047D4DA04104B
:10287000F8B51D460F4603230446C1061648164602
:10288000006803D51022BF210C400BE01B218901F9
:1028900041180A7C920602D5497C490701D40020E0
:1028A000F8BD0D222107890E08181121C901401811
:1028B000C06F2146FFF76AFF01000AD00F71CE807A
:1028C0000D81069A4A81079A8A812046FFF7BCFF4C
:1028D000E5E70720F8BD0000B00000207047704712
:1028E000F8B504460D46501E1F210843401C000445
:1028F0001646470D1ED0204608302946421A002AA7
:1029000001DD082A03DB2022FFF7A6F904E00822F4
:1029100008C9521E08C0FBD12035202E01D23046F6
:1029200000E02020A080301A7F1E24683F0486B279
:102930003F0CE0D1F8BD704770B50D4D0446112134
:102940002868C9014018902601231A46C06F3146F5
:10295000FFF71CFF010003D030464C60FFF774FF07
:102960000520296840020918087B401C087370BDC7
:10297000B000002010B50B4601784906CA0F811C33
:10298000184600F070F810BD1206130A1A43130C13
:102990001A4300BF094205D0830707D00270401CCC
:1029A000491EF9D1704700000022FFE713001039DB
:1029B00006D330B41400150010393CC0FCD230BC32
:1029C000490700D30CC000D504C0890002D302809F
:1029D000801C002900D5027070477047A446521E23
:1029E00008D303780C78401C491CA342F7D0181B6D
:1029F00064467047002064467047F0B54488491C1F
:102A0000A4B2E5B2A40809B21C808EB28788361938
:102A1000BE4204D9A6B2891B6D1C09B2EDB2A40056
:102A20002418083414601C88AD076418A400AD0F86
:102A30002C43A4B21C800388E31A9C07A40F012C2A
:102A400002D803D1002B01DD00230AE00123002975
:102A500007DA11688C78A408A400641C8C70083014
:102A600010601846F0BD70B5044616460D4608467F
:102A7000FEF7B9FD2060281DFEF7B0FD31044018B7
:102A8000606070BDF8B596B0050017001E001C9878
:102A9000049103A92B22885400200A9002950E97D6
:102AA00000960EE0252912D00498029A90470490CF
:102AB000002800D1D2E00A98401C0A900E98401CD1
:102AC0000E900E9801780029ECD10A98C8E00020F9
:102AD0000790089009900226082101910124042101
:102AE0000E9D00E020436D1C2A78202AFAD0232A6C
:102AF0000AD02B2A04D02D2A04D0302A08D00AE08C
:102B00003043F0E70843EEE7020008201043EAE70D
:102B100002001020FAE72A2A0ED1009A17683A68B4
:102B20003F1D009B1F600C92002A03D553420C935B
:102B3000014308006D1C14E000210C91004A0BE0D9
:102B4000CBCCCC0C0C9B934205DA9F00FB185B00AE
:102B5000591830390C916D1C29780B00303B0A2B29
:102B6000F0D329782E2903D00021C9430B9127E007
:102B70006D1C29782A2908D1009909680A68091D5D
:102B8000009B19600B926D1C1AE02D2902D12D2398
:102B90006D1C00E0002300210B910CE0002B09D1FB
:102BA0000B9ABC4FBA4205DA9700BA185200511876
:102BB00030390B916D1C29780A00303A0A2AEDD37E
:102BC00003A908852F783900B3A000F01BFA00286C
:102BD00001D038006D1C03AF2A217854785C682836
:102BE00005D12878682802D1622078546D1C10A87D
:102BF00006902A78681C0E90252A15D0582A52D0A3
:102C0000632A00D1BCE0642A00D17FE0692A00D1A8
:102C10007CE06F2A47D0702A3AD0732A08D0752AF0
:102C200041D0782A3FD0B5E0079410A90A70BAE0E5
:102C3000009800680468001D009908600594002C45
:102C400013D12B20385C00280CD00024E44300BFB3
:102C500093A000F0E1F9201A00D1A4E00020C043C5
:102C600017B0F0BD95A005909DE00B9D002D03D5FC
:102C7000200000F0F5F909E02A000021200000F012
:102C8000F7F9002801D0001B00E0280008908AE036
:102C9000009800680168001D009A1060039110A858
:102CA0000590782168E0785C622803D0682809D014
:102CB0006C280FE0009801680868091D009B1960E6
:102CC000C0B20DE0009801680868091D009B1960FA
:102CD00080B205E0009801680868091D009B196032
:102CE0000390388D0199C0B2084240D00398002863
:102CF0003DD020201043782839D1079810A93023DF
:102D00000B54401C431C07930A5430E0785C622843
:102D100003D0682809D06C280FE000980168086883
:102D2000091D009B196040B20DE000980168086819
:102D3000091D009B196000B205E000980168086851
:102D4000091D009B19600390002802D507982D21CA
:102D500009E0388D304202D007982B2103E0C007EC
:102D600005D50798202110AB1954401C079010A8D6
:102D7000079940180590110003A800F0A0F812E090
:102D80000794009800680168001D009A106010A860
:102D9000017008E00794252010A90870100002D0E7
:102DA000079610A842700C980799401A0999401A82
:102DB0000899401A0F902820385C400713D420202F
:102DC000694608710F9800280DDD0F9C029D0123B4
:102DD00001AA03A9280000F0FAF8002800D03DE776
:102DE000641EF4D10295079D10AC002D0ED0029EFA
:102DF000227803A9300000F0D9F8002802D4641C1E
:102E00006D1EF5D10296002800D027E730206946D4
:102E10000871099C002C0CDD029D012301AA03A965
:102E2000280000F0D4F8002800D017E7641EF4D181
:102E30000295059C089D002D0ED0029E227803A9C4
:102E4000300000F0B3F8002802D4641C6D1EF5D1E8
:102E50000296002800D001E72820385C400700D403
:102E60002FE62020694608710F98002800DC28E62C
:102E70000F9C029D0E9F009E012301AA03A928001A
:102E800000F0A5F8002800D0E8E6641E00D105E6B1
:102E9000F2E70000CBCCCC0C686C747A4C000000DC
:102EA0007072696E74665F733A2062616420257384
:102EB00020617267756D656E740000000000F0B5EA
:102EC00083B00A00C4686F2901D1082506E02021DB
:102ED0001143782901D00A2500E010251827016840
:102EE0000E00642A01D0692A03D1002901D571425C
:102EF0000E00002E0CD1016A002909D1082D31D114
:102F00002821415C09072DD517273021E17529E0DB
:102F10000290684602707F1E01973000290000F081
:102F2000B2F83031C8B23A2803DB6846007851382D
:102F30000918E1553000290000F0A5F8060004D07A
:102F400002988068E1198842E5D30298082D09D1DA
:102F50002821415C090705D5E15D302902D07F1E9B
:102F60003021E1551821C91B4161E2198260026AD2
:102F7000914206DA511A8161018D0B4A0A4002859D
:102F800010E0002A0ED52822825C14231340102B57
:102F900008D1426A0369D21A8369D21A511A0129E7
:102FA00000DB816103B0F0BDEFFF000010B503004E
:102FB0000C001100606898476060002804D0E06948
:102FC000401CE061002010BD0020C04310BDF8B5DA
:102FD0000024002B11D007000E0014001D002178E2
:102FE0007068B8477060002809D0F069401CF06133
:102FF0000020641C6D1EF2D104002000F2BD0020F0
:10300000C043F9E7C9B202788A4203D0401C002AC3
:10301000F9D100207047704780B5002801D100BF6A
:1030200007A006490B68002B03D0222200219847F5
:1030300001E000F07FF8222002BD00004C050020D6
:10304000636F6E73747261696E742068616E646C14
:1030500065723A20626164206D6573736167650013
:10306000431C0178401C0942FBD1C01A70477047CD
:10307000C9B2521E05D30378401C8B42F9D1401EC1
:103080007047002070470022030A8B420BD20309CD
:103090008B4219D243088B422ED2411A00D20146EC
:1030A000524110467047FF2209023FD012068B4260
:1030B00005D3121209028B4201D31212090203092D
:1030C0008B4219D300E0090AC3098B4201D3CB011B
:1030D000C01A524183098B4201D38B01C01A52415D
:1030E00043098B4201D34B01C01A524103098B4261
:1030F00001D30B01C01A5241C3088B4201D3CB004C
:10310000C01A524183088B4201D38B00C01A52412E
:1031100043088B4201D34B00C01A5241884200D36E
:10312000401A5241CFD201461046704708B500F010
:1031300007F808BD80B5012000F004F801BD704714
:103140007047704780B500BF00BF024A11001820C9
:10315000ABBEFBE72600020010B5C20018231340E7
:10316000FF249C40E2438907090E9940030004D5DF
:1031700074481B071B0F083B00E0BC489B089B00E2
:10318000C01803681A401143016010BDFEB5012448
:103190006D48017801220A43027000266B480660E0
:1031A000032500F0F9F969460870684600780028A0
:1031B00001D16D1EF5D16846007806282FDB6846E0
:1031C000007801250B2825D0684600F03FFA6846B4
:1031D0004178090180780843122800DA0025A448C4
:1031E0000068000705D4002D14D0012000F091F8EC
:1031F00010E0A04FF868A04E3168081A2838000285
:103200000012002806DD002D02D0012000F081F818
:10321000306838609948047000F075FAFEE70120C4
:10322000FEBDF8B500200022954917230B80FF242E
:10323000F634012306E0002C28D0150002D0012A24
:103240000ED020E08B8148608D89002DFCD04D6828
:103250000095641E009DB74EB542ECD20122EAE70C
:103260008B8148608D89002DFCD04D68009EAE4258
:10327000009E01D2AE1B00E0761B009FBF0AB74242
:1032800000D302220095641E022AD4D1F1BD10B5EC
:1032900000220021A84804E00B00415C5918491C99
:1032A000C9B2435C002BF7D1CB1C202B12DA0223CE
:1032B00043542123441863700823A3704318DA7021
:1032C0009E4A80235B02401880B218431060106849
:1032D0001840FCD110BD70B500210023964A04E0CF
:1032E0001C00D35CE3185B1CDBB2D45C002CF7D170
:1032F00002253524DE1C202E05DAD554D61874702C
:10330000B070D218D1708E4A157054709070D17010
:1033100070BD70B580214902894B9CB20C43874A2D
:10332000002804D01460106808400AD0FBE79878A1
:103330009D78FB262E409E70146014680C40FCD1D2
:10334000987070BD1CED00E00800204014000020C3
:10335000F3B58BB003A800BF83A11C22FFF71EF9B1
:10336000684600F073F9754C01250BA80078002819
:1033700058D003A84421817372490A78012313436A
:103380000B704C21C17220210172B22141741B21AA
:1033900001756D498B6B6D4A1E0C964209D1C67D35
:1033A0008F273740C775C67D1B0170271F403743E5
:1033B000C7754B6B1E0C964209D14679CF27374013
:1033C000477146791B0130271F4037434771096811
:1033D0000B0C934208D1C27DFC231340C375C27D00
:1033E0008907890F1143C175C17AFB220A40C27255
:1033F00069464A7812018E781643112E06DDC17D8A
:1034000004220A43C275C07DFFF765FF280403A9A3
:1034100089B20143216021680140FCD1112E01DDF8
:10342000FFF735FF164988890028FBD00CA80078E3
:103430008D8117220A8000224A60002809D0606826
:10344000102162680A40102303409A42F9D0FFF726
:10345000E8FE0BA80078002802D015203C4908702F
:103460003C483D4908600DB0F0BD000000E400E0BC
:10347000C000002004000048180000200C000020BC
:103480000C00104880B50820344908800321012031
:10349000C043FFF761FE03210020C043FFF75CFE3D
:1034A00003210020FFF758FE03210120FFF754FEFF
:1034B00003210420FFF750FE03210520FFF74CFEF7
:1034C00000210620FFF748FE03210720FFF744FEF6
:1034D00003210D20FFF740FE03210E20FFF73CFEE5
:1034E00003210F20FFF738FE03211120FFF734FEE0
:1034F00003211220FFF730FE03211320FFF72CFEDB
:1035000003211420FFF728FE03211520FFF724FED6
:1035100003211620FFF720FE03211720FFF71CFED2
:1035200001210120FFF714FF0D480E49086062B623
:1035300001BD000001960000280500200C00004895
:103540001C00002008002040B007001055AA000011
:103550000000C040CCBCECFC140000200400104073
:1035600066000E0020009040023F00023E30023C08
:1035700020023B4C023A400239B202345B02350B66
:10358000000000002D4A0129116802D10843106093
:10359000704781431160704729480078294909889C
:1035A000002821D10A00093A792A21D209220A40A9
:1035B000092A01D10620704711220A40112A01D19F
:1035C0000720704721220A40212A01D10820704794
:1035D00041220A40412A01D10920704781220A4034
:1035E000812A05D10A20704702281CD1012070478A
:1035F000FF22921C13000B40934201D10B20704715
:10360000114A13000B40934201D10C207047052250
:103610000A40052A01D1052070478907890F03292F
:1036200001D104207047042801D1022070470828E6
:1036300001D1032070470020704700002000904017
:103640000800904008001048010400000F210E4AB5
:1036500013681B090B404370136819408170D268CE
:1036600042600121094B9A4201D1022200E001226D
:1036700002704278002A00D1417005490988491C2E
:1036800089008160704700001C00904041A000024A
:10369000140010407FB504000D0016006846FFF7C7
:1036A000D5FF6846017821704178297080783070A4
:1036B0007FBD7047EFF31482EFF30981002080F3A0
:1036C0001488BFF36F8FF0B543464C4655465E46AF
:1036D0006746F8B4164CEFF30883236006B4154C24
:1036E0002068154C2060154C2068154C2060154C46
:1036F0002068154C2060154C276800202060BFF31F
:103700004F8F30BF27600A4C246884F3088882B04A
:1037100003BCF8BC9846A146AA46B346BC46F0BCDA
:1037200004BC80F3098881F31488BFF36F8F1047BE
:103730000800002004ED00E0B400002024ED00E0CB
:10374000B800002000E200E048050020080020400A
:10375000F0B5DF48DF49006893B04418DE494118EE
:103760000391DE498968CA017ED54A03DB490969AC
:103770007BD4C8890122520780184088851888891F
:103780008018408804A9871828780607360F28462D
:10379000FFF7F0F8D1488068002867DA022110A806
:1037A000032E02D0052E69D05BE1CC4EF278D20612
:1037B0005CD501227271C64A1268E032127C002A7E
:1037C00021D06A4611760897099003980A900795C8
:1037D0000DA80C900B9406A800F082F93071307996
:1037E000012843D001200006B0613069018A2046DB
:1037F0008030026A11803169008C0882887A8022C8
:10380000104388722DE106A9284600F06BF9A81C28
:1038100001460A786B7910464A78120210438A787A
:10382000C9781204104309060843297800024906A2
:10383000C90F08431946AB792A7A1B021943EB7961
:1038400012061B0419431143090200F055F90699A9
:1038500022689142C3D1079962689142BFD1012881
:1038600006D0F078400602E029E183E07CE002D552
:1038700000203071B6E701203071F2E0974EF27807
:10388000120771D500220923DB065A60904A12689C
:10389000E032127C002A25D06A46117608970990FA
:1038A00003980A9007950DA80C900B9406A800F0B9
:1038B00017F93071012858D03069009004AB2146C7
:1038C0002846F26800F044F9814900200968203157
:1038D000C8742046C030C17BB278914244D10821DF
:1038E000C173BEE006A9284600F0FCF8A81C0146FA
:1038F0000A786B7910464A78120210438A78C978A0
:10390000120410430906084302022878297A400667
:10391000C00F02431846AB7909061B021843EB7926
:103920001B04184308430102104600F0E5F801218A
:10393000317106992268914217D1079962689142C4
:1039400013D1012802D0F07800060ED5F078800659
:1039500007D50498A168884207D10598E168884294
:1039600003D100203071A7E77BE0A4203169005B20
:10397000088276E0594A8B89A021095B89B28B4283
:1039800001D101219171112189014218937D504D7E
:10399000012B66D1D279FF2A63D036214A4312180F
:1039A000FF3241320394507B002836D10521490271
:1039B0002E6813787618776B06462A36BB552E6824
:1039C000521C7618776B06465236BB552E68761811
:1039D000776B06467A36BB552E687618776B0646A7
:1039E000A236401CC0B2BB550628E1D32868401857
:1039F000426B40212032137A0B431372426B4032E8
:103A0000137C0B431374426B6032137E0B431376AB
:103A1000406BA03002780A4302700398007E0128B0
:103A200019D11120296880010818C0793622504325
:103A30004118FF202F30405C00280CD10398FF3143
:103A4000406B4831083000F0CFF903988022406B7A
:103A500001781143017011212A6800208901511851
:103A600088751E4A1069817A090628D5038A21467D
:103A700080318D8CADB2AB4221D12F250B8A2D5DCB
:103A8000C57200200925ED066860FF25581E5535D2
:103A9000A84200D80882002B04D1012090619078C0
:103AA000FDF7D6F80A484F210068490140184079CF
:103AB000002802D00120FDF79FF9FDF771FA0748B1
:103AC0008068400302D52046FDF709FE13B0F0BD23
:103AD000B000002008090000E8090000680000208C
:103AE0001F20704710B50B460178CA0901460831FE
:103AF0001846FEF7B8FF10BDF0B4144A5D231268F3
:103B00001B01D21894461F27202200245208A31814
:103B1000DBB2BB4214D2DD0065442E686D682D0215
:103B2000A94203D8A9420BD1B04209D31C46B042E6
:103B300006D1A94204D1FF2B04D0F0BC012070476C
:103B4000002AE3D1F0BC002070470000B000002044
:103B5000FFB50D4606468DB000200921C906169F07
:103B60001446486030460E30FDF73DFD0890B17CAC
:103B7000F07C0202307D0004104308430A90707DFF
:103B8000079030461630FDF729FD0C90304618306E
:103B9000FDF724FD069030461A30FDF71FFD0B900F
:103BA00030461C30FDF71AFD019030461E3020369D
:103BB0000090F078C106C90E46090920C006099197
:103BC0008068A86400203946E8642131052202910A
:103BD0000098FCF7AEFE0221E17000202222505531
:103BE000E07306980C22504360610020312210558A
:103BF000019801230001A061284621714030039003
:103C0000837106987049400240187049896A814260
:103C100000D208460021686521810B98A081069892
:103C200020870C9842000120921CEA64039A968334
:103C3000039A9680A17121612080A06A0080A06A09
:103C400044802046403001751B26FF21668749319C
:103C50002A460181C032138A1B2B02D1538A8B4220
:103C600001D010230375138BA387E6870680468057
:103C70008680C680528B42818181C18101824182CE
:103C8000288C5349401C80B2884202D949424018CE
:103C900080B260812884C7200190A16AC872052281
:103CA00002990098FCF745FE0020F872218D3982B8
:103CB000F8750898B8610A98F86120210998C855E4
:103CC000FCF7F8FD8022012800D1BA75422002904D
:103CD0000590404804902E4610983F4980360028B1
:103CE00039D0B06B0080B26B0198D072308F78827F
:103CF00010983A4A006828611098406868610798EF
:103D00005043FF30F530A865039A0120907708886A
:103D1000334A400712682323400F9B01D218907446
:103D20006079C022104360710020B872A078C0088A
:103D3000C000801CA070B26B1B2090720888A16A22
:103D40004001083088720020C0433082B16B0322EA
:103D5000C91D029825E0706B0080736B0198D872C2
:103D6000B08E78826079C02318436071BA72A078EF
:103D70001C4DC008C000401DA0700888A16A400109
:103D800019308872716B0A20887200F03BF8716BF1
:103D90000322C91D0298FCF7F9FE716B0322284625
:103DA000091DFCF7F3FEFDF7FBF8A16A0322C91D0C
:103DB0000598FCF7EBFEA16A0322091D0498FCF7A5
:103DC000E5FE11B0F0BD00009AFDFFFFCC0400201D
:103DD000FF0E0000FA003000C0000020E2040000E6
:103DE000B00000202C01B0000A7802704B784370BC
:103DF0008A788270CA78C2700B7903714A794271ED
:103E0000704770470B480C49006840180B490988F7
:103E1000C36A4907028C090F5A52036BC28B5A526C
:103E2000836A428C5A52436A828B5A52816941603A
:103E300070470000B000002098080000C00000207B
:103E4000FFB5002099B0239A0B901290054614906C
:103E5000064615901C46DB480B460068E321C90066
:103E6000411803910021229F0891099151880691E0
:103E700011880A913B21490140180078C00706D0FB
:103E80000FA9184600F0A2F900280AD102E0472045
:103E90001DB0F0BD10AA0F991B9800F0ADF90028D5
:103EA00001D06020F4E71998002803D0600701D5FD
:103EB000012000E000201390A007800F1C901098B4
:103EC00017902030C078012840D11798BE4B018947
:103ED0009942F9D11798069904680A98228C4118DA
:103EE000914233D82046203016908078012816D091
:103EF000E08B04901798806900788006800F7DD051
:103F0000039840301890007A800777D51C980028D5
:103F1000F5D0AD4F0F99FF372031206814E0BA4239
:103F200014D3B942DDD80497E4E70389A64A934243
:103F300003D12322125C012A08D0BB4203D12322E1
:103F4000125C012A03D000688842EED134E105906A
:103F50000028FBD09B480521026849025118896955
:103F60000027009162E0780100990390085A01054A
:103F70005AD01999002901D0884255D105997A0063
:103F80008B69511C595C9A5C0902891889B20D91A0
:103F9000890749D00222059900F03DF9002804D094
:103FA0001998002840D0652072E7002008A9C8555C
:103FB0001C98C00718D0179880690078C00613D5E0
:103FC0000D98C00710D00120C8550543009A0398EA
:103FD00080184088159A904206D91590009A039847
:103FE000105A0005000D14901C9880071CD51798D6
:103FF00080690078800617D50D9800E084E080077E
:1040000012D50220CA5D05430243CA5500990398A0
:10401000401840881599884206D915900099039850
:10402000085A0005000D14907F1CFFB26548006817
:10403000A030037BBB4296D8002D65D01898007A3B
:1040400000065FD45F4801680520400208188169B6
:1040500000201BE042018E5A360515D0AE070BD565
:1040600056183669B7070DD408AF3F5CBF0703D5B4
:10407000360701D546200BE7EE0705D05218127C13
:10408000D20701D0432003E7401CC0B28342E1D8ED
:104090001598C01E86B20498864200D90646A80725
:1040A0000FD5202200201499FDF7B8FA12900028AD
:1040B0007DD0F01C82B20021129800F0D4F80028C4
:1040C00011D1E80720D0202200201499FDF7A6FA8C
:1040D0000B90002807D0F01C82B200210B9800F052
:1040E000C2F8002810D0802000F0C4F812980028F0
:1040F00002D0002100F0CAF80B98002802D000215D
:1041000000F0C4F86420C3E6A1690A98069A08186A
:104110002499FEF72FFA16988078012801D1049887
:10412000E083002D46D0274B05201968400208186F
:104130008169002008AA0CE04301CF5A3F0506D050
:104140005F18BC463B69175C3B4367463B61401CBC
:10415000C0B21C4B1B68A0331B7B8342ECD8A80762
:104160000DD512980090F01C82B221461C3102201D
:10417000A36900F0A9F80220129900F0C4F8E8073A
:1041800018D00B980090F61C2146B2B21C310120C9
:10419000A36900F099F81398002805D00B988021A6
:1041A000C07C08430B99C87401200B9900E005E01E
:1041B00000F0A9F800206BE6422069E6802000F0BC
:1041C00059F89FE7B00000200328000010B5094A05
:1041D000E3231268DB00D2189368083206E01C8DD6
:1041E000844202D100200B6010BD1B689342F6D1BF
:1041F000412010BDB000002010B50B6A203106E050
:104200009C8B844202D10020136010BD1B688B423E
:10421000F6D1412010BDF8B516460D4607460024DC
:1042200000F098F8002806D032462946384600F0BB
:10423000B5F8044604E020356879002802D00E2441
:104240002046F8BD2879C10701D1012E09D0810788
:1042500001D4022E03D04007F2D4042EF0D103245F
:10426000EEE70224ECE710B5121D806892B200F070
:10427000E5F810BD04490A683B21490151180A7844
:1042800002430A7070470000B0000020F8B50E46E7
:104290000C490522096852028918083807460C693A
:1042A00000F002F905463946A06800F007F972B639
:1042B0007100605C401B605420794019207162B627
:1042C000F8BD0000B0000020F8B5069C1F4615465A
:1042D0000646002C13D0A06802220D30FEF74AF9E2
:1042E000E81E82B23B460721204600F002F9E58035
:1042F000A068012E05D01D2101730020F8BD4720C4
:10430000F8BD1B21F8E77CB50C4605466A4601A9B5
:1043100000F0F8F8002801D041207CBD6846E18813
:104320008088814200D9E08000980088A0802046E3
:1043300000F010F90098012D07D0016908221143FF
:1043400002229143016100207CBD016949084900B6
:10435000F8E7704770B500281CD00F4A0F23126889
:10436000DB0104050021D318240DA032127B0FE0DD
:10437000084678267043DD6B1030285A0005000D82
:10438000A04203D178225143681870BD491CC9B2BC
:104390008A42EDD8002070BDB000002070B51546EF
:1043A0000C46064600F0ECF820346179012D09D066
:1043B0000A0702D54207920F0FD0CA0625D5020779
:1043C00009D522E0CA0702D04207920F05D08A071A
:1043D00005D5020703D4082070BD052070BD49072C
:1043E00007D5C00709D0E179304600F0E0F85F2832
:1043F00005D02079C00704D005E00F2070BD0C2047
:1044000070BD022070BD002070BD890607D5C007B1
:10441000F3D0E179304600F0CAF85F28EFD0207978
:10442000810701D4022D07D0410701D4042D03D008
:104430000007E8D4082DE6D1032070BDF7B5074684
:1044400018480521006849024018046941201646B1
:10445000002F11D0384600F0BAF80546B0420CD211
:10446000301A81B20198FDF7B7FB002804D132461B
:104470003946A06800F0B5F8FEBD32463946A0685E
:1044800000F0AFF86D1E761E69097209891A72B6BE
:10449000019A5200A35C5B1AA3542279511821712E
:1044A00062B6FEBDB00000200021002804D0491CE7
:1044B0000068C9B20028FAD108467047002917D011
:1044C00072B60278002A03D0436892009A581160AD
:1044D00010B400238B800278521CD2B20270446860
:1044E0009200A15009680029F4D162B610BC70474F
:1044F000704710B51C4613460A468068214600F0F6
:10450000B7F810BDF0B5944600220A806346104CFF
:104510001A60052322685B028646D2184120926900
:1045200000230FE05D01AD182F697646374207D0B2
:104530006F880E88B74203D90F806046056000205F
:104540005B1CDBB22568A0352D7B9D42EAD8F0BD0F
:10455000B000002010B504460146042000F0BCF86D
:10456000002809D00548E3210068C9004018214609
:104570003C3000F0D7F8432010BD0000B000002010
:1045800010B50024FFF7E6FE00280ED0008AC10413
:1045900007D50124810401D5032402E0410400D59C
:1045A0000524000401D408200443204610BD10B5A2
:1045B0000C46FFF7CFFE002807D0017A002904D06F
:1045C000807BA04201D3002010BD5F2010BD0021E0
:1045D000002804D0491C0068C9B20028FAD148015B
:1045E000704730B400240B1E22D02034A4B2944271
:1045F0001AD30A68002A35D072B60378002B03D08C
:1046000044689B00E3581A600024948003785B1C84
:10461000DBB2037045689B00EA501268002AF4D1AF
:1046200062B6002008601DE00B4609680029DCD155
:10463000111B491EC9040A0E72B6017891420CD9A9
:10464000891AC9B24A1ED2B202704068890092002B
:10465000415882580020106000E0002162B61960C5
:10466000002902D030BC0020704730BC4720704782
:10467000FFB504465009000681B01F46000E06D063
:10468000002C23D0401E24680006000EF8D1D60668
:10469000F60E17E02020851BBD4200D33D46A01931
:1046A0002A4608300299FDF765FF029871194019F2
:1046B0000290781B87B2A088884201D2A819A080F6
:1046C00024680026002F04D0002CE3D1412005B03F
:1046D000F0BD002005B0F0BD10B50C460146042821
:1046E00005D0052903D0062901D0502010BDA068AF
:1046F000A2790272E088020AA0684272A068817200
:10470000A068090AC172E088001DE08002202073C1
:10471000204600F01DF80028E8D0E088001FE08067
:10472000412010BD10B50446002008602068002814
:104730000CD0606801600846616000F039F8E17AE9
:104740004018E072A07A401CA07210BD2160F2E710
:1047500010B5044600202082A074A168A1616161A7
:104760002060204600F02AF8452801D0412010BDE5
:10477000A088032100F04AF80446FCF7BBFF00289C
:1047800012D072B60948012201684F204001091871
:104790004879A2401043487162B60020FCF72CFB18
:1047A000002801D0FCF7FCFB002010BDB000002069
:1047B00010B58068FFF778FE10BD704710B504464D
:1047C0008088032100F022F8022172B6082815D251
:1047D0000D4A1368052252029A1858235269584309
:1047E000831CD35C002B09D0002110182160016AC2
:1047F000002906D0416A0C604521446262B6084631
:1048000010BD0462F8E70000B0000020F8B50746CC
:104810001F48052605681F4876022C1828463630A2
:104820003F0584463F0DAE19237D08200022A035A8
:104830000097B6462D7B0EE0DE0709D076467669F6
:1048400058275743F6197689009FB74200D1104682
:104850005B08521CD2B29542EED82034A27E1207D9
:10486000120F824202D1CB0700D10820824207D02A
:1048700062461278130707D45207520F824203D1BF
:10488000C90700D10820F8BD8907FBD5F8BD000095
:10489000B000002098080000F1B5FFB08BB00124F3
:1048A000600205900027CC4807970168E320C0000C
:1048B000081803908A98C74D0005000D0AAA05A99B
:1048C00000F08EF90690002872D104260AA80599F6
:1048D0004218203AD27F0B2A23D0002600200490D1
:1048E0000AA88119022201A80291FDF743FE684639
:1048F000818809AB08AA039800F090F9012817D025
:1049000002287DD068468088854200D305468442CF
:1049100000D92046044602988078012871D01336C9
:104920003BE1491E761E36040591360CCFD1D5E702
:1049300008980090002F79D100990222283102981E
:10494000FDF728FE00281ED100982030017B029838
:104950008078814217D1012808D10098029902225B
:104960000830C91CFDF716FE002815D00298807883
:10497000022808D10098029910220830C91CFDF7BE
:1049800009FE002808D00098008DA84200D80546EE
:10499000A04200D22046044602990AA8897801293B
:1049A00007D013360599B6B28E4204D3012707E02B
:1049B00005E1761DF6E78119022201A8FDF7DAFD6F
:1049C0000399009808318E462EE084466946026AB3
:1049D0008B8820300DE0918B994203D3012F7DD13C
:1049E00099427BD9A94200D80D46A14200D30C467A
:1049F00012688242EFD10498002817D1604601E086
:104A000015E0BFE0006870450ED0018D994203D3D8
:104A1000012F09D1994207D98D4200D30D468C420E
:104A200000D80C46012F59D17045CED1BAE0089874
:104A30000090002F72D1009902221C310298FDF7DC
:104A4000A9FD00281ED100982030C17802988078F6
:104A5000814217D1012808D100980299022208301A
:104A6000C91CFDF797FD00281AD00298807802280B
:104A700008D10098029910220830C91CFDF78AFD60
:104A800000280DD00098808BA84200D80546A0428F
:104A900000D22046044602988078012826D003E000
:104AA00002988078012805D013360798B6B20128FD
:104AB0001ED021E0009849490089884216D18A9881
:104AC00000F0CAF80146009800F0E4F80099098C5B
:104AD0004843009989694018022200E038E00299B1
:104AE000491DFDF747FD01200790D4E7761DDCE75F
:104AF000B61C0020B6B207900598864201D3012764
:104B000005E00AA88119022201A8FDF733FD039AE6
:104B10000099083209980968944630E01AE0864600
:104B20006A46938820300DE08A8B9A4203D3012F86
:104B30000ED19A420CD9AA4200D81546A24200D3FF
:104B4000144609688142EFD1049800282AD102E076
:104B50000120049026E07046006860450FD0028D69
:104B6000016A9A4203D3012F09D19A4207D995428B
:104B700000D31546944200D81446012FE8D1604571
:104B8000CDD10FE00298C078022805D102980079B3
:104B9000292801D1B61CB6B2761D0598B6B2864258
:104BA00000D301270598811B042902D3864200D235
:104BB00094E604980028FBD1A54203D906987FB05B
:104BC0000CB0F0BD224629468A9800F08BF806907A
:104BD000F5E70000FFFF0000B00000200229000000
:104BE00070B594B015460E466C46FFF7B3FB00282F
:104BF00012D0C17B2246C907C90F683000F094F873
:104C0000002802D05C2014B070BD0FA82A4631469F
:104C1000023000F0EBF8F6E74020F4E7F0B58468E6
:104C2000083015E0258D8D4203D1146018600120F5
:104C3000F0BD26461C602036256A06E0AF8B8F4209
:104C400002D102201560F0BD2D68B542F6D124686E
:104C50008442E7D10020F0BD10B50D4900050B6876
:104C60000521490259188A690021000DA0331B7BD8
:104C70000AE04C01145B2405240D844202D1480152
:104C8000801810BD491CC9B28B42F2D8002010BD5B
:104C9000B000002030B5024623239B5C0020012B8E
:104CA0001AD112890D4B9A4216D10D4A052312686A
:104CB0005B02D318A0329B69127B0AE045010C8885
:104CC0005D5B24052D05240D2D0DAC4204D0401C48
:104CD000C0B28242F2D8002030BD0000022900009C
:104CE000B000002030B50F4BE3251B68ED005B19C9
:104CF000403304461B7A412085B09B0710D56B4694
:104D00009981DA81002018820420588203AA04A91C
:104D10006D4607C502231A4601212046FFF790F889
:104D200005B030BDB0000020FEB507462E480E4647
:104D300000680121C9024018C56E0020694614466A
:104D40000870002E1BD0012E06D17879010601D5FE
:104D5000410614D4800912D07879400641D56946BD
:104D6000284600F0A7F826461E3668460078FE283A
:104D700027D0FF2835D000282DD0FA20FEBD2046B0
:104D80003E3001906946284600F094F86846007865
:104D9000FE2805D0FF2824D00028EED11435F1E7F5
:104DA0002146284600F08EF86078C007C00FB04258
:104DB000F4D1062239460198FDF7ECFB0028DDD03E
:104DC000ECE72146284600F07DF83146384600F0F1
:104DD0008BF80028D2D014356946284600F06AF8CE
:104DE000C3E75C20FEBD0000B0000020F7B586B030
:104DF0000F4600F08BF8044600206946087206460C
:104E0000386804900C20039002A9204600F052F864
:104E10006846017A761CFF2932D0FE2904D0002989
:104E200002D0FA2009B0F0BD2148A2001218136880
:104E30006A461D0A15701D0C55701B0E9370641C7C
:104E4000A200121813686A46D3701D0A15711B0C54
:104E50005371641CA20010180568FE2906D10622B1
:104E600068460699FDF796FB00280BD0A8080419A0
:104E7000641C02A9204600F01DF803988642C7D39F
:104E80005C20CFE70498854201D94820CAE73D60FD
:104E90000026074F08E0641CA000C01901680898AC
:104EA000801900F03FF8361DAE42F4D30020B9E778
:104EB00000000410024A80008018006808707047E3
:104EC00000000410F8B5074F0E4604460025A00068
:104ED000C0190168701900F025F8641C2D1D502DB3
:104EE000F5D3F8BD0000041038B50B460446C11CCC
:104EF0006A46184600F01EF8032221466846FDF770
:104F000049FB002800D0412038BD704704480168A3
:104F10000120C0020818C16E006F08187047000019
:104F2000B000002001700A0A42700A0C8270090E5B
:104F3000C170704770B588B016460C460546102201
:104F400000216846FDF71CFB032221466846FDF759
:104F500011FB002304AA6946284600F007F8032243
:104F600004A93046FDF706FB08B070BDFFB50C463E
:104F700091B00146102204A8FDF7FCFA1022214648
:104F800008A8FDF7F7FA04A8009008A801900CA85B
:104F900002900026684606731848194900680927D8
:104FA0004518FF062C46803472B66846007B002800
:104FB00008D062B610220CA91398FDF7DBFA002086
:104FC00015B0F0BD286D3969401A0E4900020988F4
:104FD000000A09070BD51499002908D10A49FF389E
:104FE000884204D368460673606430BF03E06846B5
:104FF0006664FCF741FE62B6D6E70000B000002010
:1050000008090000C000002002FF7F00F3B5A5B032
:1050100008881A9088780C4611901022091D13A850
:10502000FDF7D6FAA08A1090A17D68460172E07D56
:105030000F90207E2090677EA07E1F900020064665
:105040000146129020A801810F20BB4C2390E32140
:105050002068C9004018199000F074F900280BD19D
:1050600001211098490288425FD821A91A98FFF7B8
:10507000ADF8002802D0602027B0F0BD219817902D
:1050800000F07AF91A9988420CD102A8019016987A
:10509000009013AD0ECD119800F076F9002801D0E4
:1050A0006320E9E76846017A8806800F05D0012071
:1050B00012902068A030007B4600C80703D01298E9
:1050C000401CB61C1290080603D51298401CB61C52
:1050D000129017980DA918301D9000F08DF96846B0
:1050E000129C808EA41CA04237D317980EA92030A2
:1050F000019000F081F96846018F00290DD01798C2
:10510000179A6B46406A9B8E128D5918808B5118E6
:10511000081AA04201D26120AEE71798846911985D
:105120002568012803D0022803D04220A4E70520E7
:1051300000E01320E0832A4639460F9800F066F914
:10514000422899D0199FE28B4037788B398B411ACE
:10515000109810188019814201DA48208CE70EA9B6
:10516000019800F049F96846008F0028179802D08E
:10517000406A808B00E0008D2599401C08802598AE
:1051800001210088A083259802220088401CA88362
:105190006A482081204620301790C170002181701C
:1051A00081711998398B406D40186946A061097A60
:1051B0000170A06929461C31401CFDF7DBF91198EC
:1051C0000128A0697ED0102213A9C01CFDF7D2F9D6
:1051D0002846102213A90830FDF7CCF9388B13307C
:1051E00038832E4620361198F0701098E8831F9867
:1051F000B07010982084109828841998398B406DCD
:105200004018A8610021109AFDF7BAF9398B10985F
:1052100008183883179901200871179900204871E0
:1052200030716846007A810701D50121317101078B
:105230000227002902DA317939433171410703D558
:105240003179042211433171400603D530790821A8
:10525000084330710F9870712098B07121461D98E5
:1052600000F0E0F82146019800F0ECF829461D987E
:1052700000F0D8F82946019800F0E4F812980028C8
:1052800041D068461A998181A18BC18107844784E6
:10529000012408A8047122A80A9008A884732399FD
:1052A00041730F993820014008A801730721C17389
:1052B000002505746846007AC00708D02048694672
:1052C000088200E02AE003A924A800F0C3F8684699
:1052D000007A8006800F07D019486946401E088270
:1052E00003A924A800F0B6F86846007A00060AD59B
:1052F000292109026846018208A84473057303A99D
:1053000024A800F0A7F8259801881298401C0818D6
:1053100082B20020FFF7E6FC0020ADE6022213A9CE
:10532000C01CFDF727F92846022213A90830FDF713
:1053300021F9388B401D53E7B000002003280000FE
:105340000329000010B50B48E3210068C900441888
:105350004034207AC00709D0002000F02BF9217AD0
:10536000890701D5002803D0002010BD472010BDBB
:10537000642010BDB000002002480068AE300088F4
:1053800070470000B00000200FB410B5079C012842
:105390002DD1684680891749884210D103A80FC8CB
:1053A00000F026F900281DD100F040F9FA281ED09F
:1053B00001281CD92078F3210840207017E00D49FE
:1053C000491C884208D0C91E884205D0491C884221
:1053D00002D0C91C88420AD103AC0FCC00F008F9F6
:1053E000002800D0632010BC08BC04B0184700207F
:1053F000F9E70000022A0000026800230B808242C5
:1054000003D09BB212685B1CF8E770472423184254
:1054100004D0C81F092803D82032D171002070475A
:105420004220704700B50B4600F022F9002808D052
:1054300003CB083B086003CB41600020083B1860A9
:10544000586000BD086042684A604268116041606F
:1054500070477047F3B597B00D8848880590081DD0
:105460001DC80DAE1DC68C8ACE8A087E1390C869F1
:105470002031019008780090487804908878039053
:10548000C87802900F79FFF75DFF002817D101203F
:10549000400284425FD8B4425DD8002F01D1B442AB
:1054A00059D114A92846FEF791FE002806D115AA65
:1054B00014990598FEF7A0FE002802D0602019B0CC
:1054C000F0BD149D11A928461830FFF795FF10A8CC
:1054D0008088002810D0284612A92030FFF78CFFC2
:1054E00010A8838800892A8D1818696A10188A8B79
:1054F000904203D16120E2E74820E0E715982C4B69
:1055000002899A4227D12322125C012A23D1006802
:1055100000681690139801281FD16846808E2922B2
:105520001202801A030000F0AEF806041804040703
:105530000A18022C0FD110E0072C0CD10DE0042C1E
:1055400009D3E00707D1012F07D1A64203D3042EC8
:1055500001D3F00701D04220B1E702980B90039BE2
:10556000049A0A9309920098019A0C97089006965B
:10557000059407920DA81DC8019002A81CC013989D
:105580000B4600902A461699179800F089F80028D3
:1055900095D168460649808EFF31884205D017981C
:1055A000018800200A46FFF79DFB002087E70000E6
:1055B000032800000D49052209685202891809696B
:1055C00072B60122824350004218084B095C052044
:1055D0001B68400218180069527800798A4202D983
:1055E000511A401AC0B262B670470000B0000020E5
:1055F0001FB582B00024FFF7BFFE6946FEF7E6FD47
:10560000009A6846116A0089203209E023235B5C16
:10561000012B04D10B89834201D1641CE4B20968D7
:105620009142F3D1204606B010BD0000F8B50F48F6
:1056300001210068C90240181426C56E0020694681
:105640000870044669462846FFF734FC684600782F
:10565000FE2805D0FF2807D0002803D0FA20F8BD87
:10566000641CE4B2AD19EDE72046F8BDB00000209F
:10567000026804E08A4201D1012070471268824228
:10568000F8D10020704730B47446641E2578641C3D
:10569000AB4200D21D46635D5B00E31830BC184787
:1056A000FFB55248E322006887B0D2008218069204
:1056B00010AA109B0126169F9288012B04D14C4BF7
:1056C0009A4201D1A030067B069D34464035688B56
:1056D0002B8B7C43C31A099820300390A34222DA13
:1056E00048200BB0F0BD2320405C012819D1088967
:1056F0006C46208098420CD03D4C641EA04208D0DD
:10570000641CA04205D0641CA04202D0A41CA0428C
:1057100007D1374CFF3CA04201D0904201D162201A
:10572000DFE7096801E029231B0203988142DAD1EF
:1057300009981B99846918982246FFF767FE42284A
:10574000CFD01C98012804D11598874201D242205D
:10575000C7E71598E083204620301C99059081709A
:1057600027840A98808B401CA0831098012814D0AD
:105770002046102211A90830FCF7FCFE059910986C
:10578000C8700698298B406D4018A061298B384657
:1057900070430818288300250FE011A80FC80834AB
:1057A0000FC4183CEAE72846A16978430818159AFF
:1057B0001799FCF7DFFE6D1CEDB2B542F3D30599E6
:1057C0001898487105991998087105991A9888715F
:1057D000099821461830FFF725FE21460398FFF768
:1057E00031FE0798A18B018000207AE7B0000020ED
:1057F0000229000038B58AB008A800BFA9A10CC9C9
:105800000CC006A8A9A10CC90CC006AA062100203C
:1058100000F078F90500954C02D02900200042E004
:105820000421012000F072F900F074F9050003D0A2
:1058300029002000243036E09EA000F06FF905A872
:10584000019004A8009004AB9B1C082200210120B9
:1058500000F078F9050003D029002000483022E04C
:105860009CA000F05BF908A803900820029000209B
:1058700001900820009000236846028A418A002097
:1058800000F078F9050003D0290020006C300AE010
:105890002000A03000F042F900F07EF9050006D0AB
:1058A00029002000D03000F039F9280004E0200061
:1058B000F43000F033F900200BB030BD7FB56C4DF3
:1058C000A868400603D52026A868304003D07FBDD5
:1058D000A8880019A8806888A98881421AD2441A29
:1058E000152C00DB1424634840180390E0B20290AA
:1058F00000200190A0B2009001235F4802885F4819
:105900000188288800F036F96428E1D1A8680643A8
:10591000AE607FBDA86840218843A86000206880F1
:105920001020574908607FBDFEB500240026514F66
:105930004F4D01906846018024E06C8021E068882A
:105940005049884200DB6C800198805D69887854FA
:105950000198805D00F038FA6888401C688081B248
:1059600079184A1E12780A2A0BD180B20128E4D095
:105970000C70A86840210143A960102042490860CA
:10598000AC80761C684600888642D8DBF7BD0000F4
:1059900000B58BB007A800BF56A11022FCF7FEFD92
:1059A0000021002000F041FA0020069005900490AC
:1059B000039007A802900E20019000200090002381
:1059C0000022002100F03CFA304A002804D00100F7
:1059D000100000F0A3F803E01000303000F09EF853
:1059E0000BB000BD10B5224CA068800705D5FFF7AD
:1059F000CFFFA06802218843A060FFF75FFF10BDC2
:105A00001B480180816801220A4382607047184860
:105A10008168012291438160816802220A43826089
:105A200081680422914381608168202291438160D2
:105A30008168174A0A4082608168164A0A4082607B
:105A40008168154A0A4082608168144A0A4082606F
:105A5000704780B508001900029A00F0F5F801BD02
:105A6000034881682022914381607047C4DF04109D
:105A70005C000020CC020020020500200005002070
:105A800000E100E0FF01000080E100E0E4F5041027
:105A9000FFFEFFFFFFFDFFFFFFFBFFFFFFF7FFFF25
:105AA00070477047426C75654E524731AA0000E15D
:105AB000800200006163695F676174745F696E6989
:105AC000742829202D2D3E20535543434553530D13
:105AD0000A0000006163695F6761705F696E6974E5
